{
  "transactions": [
    {
      "hash": "0x13ca7b86761b4704e89e4a6468f480e54a2a39939c81a7407d24a2a0327279cf",
      "transactionType": "CALL",
      "contractName": null,
      "contractAddress": "0x9c0187fcc2af0e918e3b6d6e31963e6aef10523f",
      "function": "grantRole(bytes32,address)",
      "arguments": [
        "0x9f2df0fed2c77648de5860a4cc508cd0818c85b8b8a1ab4ceeef8d981c8956a6",
        "0xb0eEa8Ca6A5500167836253704b009DCA2f88326"
      ],
      "transaction": {
        "from": "0x0a1978f4cec6afa754b6fa11b7d141e529b22741",
        "to": "0x9c0187fcc2af0e918e3b6d6e31963e6aef10523f",
        "gas": "0x118fc",
        "value": "0x0",
        "input": "0x2f2ff15d9f2df0fed2c77648de5860a4cc508cd0818c85b8b8a1ab4ceeef8d981c8956a6000000000000000000000000b0eea8ca6a5500167836253704b009dca2f88326",
        "nonce": "0x3f",
        "chainId": "0x14a34"
      },
      "additionalContracts": [],
      "isFixedGasLimit": false
    },
    {
      "hash": "0x54777094bd12cf687ee8229cc3342de4d16821b4db2738b995ce181bb94c7378",
      "transactionType": "CALL",
      "contractName": null,
      "contractAddress": "0x4db1987fcdf122679101dd8b46e3dcdf22414f49",
      "function": "grantRole(bytes32,address)",
      "arguments": [
        "0x32e2871f61ddc79b070eebfaed80c8f55027023b24db38fa6a5c980e039ec398",
        "0xb0eEa8Ca6A5500167836253704b009DCA2f88326"
      ],
      "transaction": {
        "from": "0x0a1978f4cec6afa754b6fa11b7d141e529b22741",
        "to": "0x4db1987fcdf122679101dd8b46e3dcdf22414f49",
        "gas": "0x12944",
        "value": "0x0",
        "input": "0x2f2ff15d32e2871f61ddc79b070eebfaed80c8f55027023b24db38fa6a5c980e039ec398000000000000000000000000b0eea8ca6a5500167836253704b009dca2f88326",
        "nonce": "0x40",
        "chainId": "0x14a34"
      },
      "additionalContracts": [],
      "isFixedGasLimit": false
    },
    {
      "hash": "0x31b7fc96def1065e712b757f026d35ce2e386ddfb52a3d06532fc25edf19627b",
      "transactionType": "CALL",
      "contractName": null,
      "contractAddress": "0x4db1987fcdf122679101dd8b46e3dcdf22414f49",
      "function": "grantRole(bytes32,address)",
      "arguments": [
        "0x2b3b34d8f2cbfb9866f3463c0bc43f6d821c949e95f5ca06701a7756b45ebc8e",
        "0x40aE1E45FE5E1b3bF63c6A95C3380f46F4930a98"
      ],
      "transaction": {
        "from": "0x0a1978f4cec6afa754b6fa11b7d141e529b22741",
        "to": "0x4db1987fcdf122679101dd8b46e3dcdf22414f49",
        "gas": "0x118d0",
        "value": "0x0",
        "input": "0x2f2ff15d2b3b34d8f2cbfb9866f3463c0bc43f6d821c949e95f5ca06701a7756b45ebc8e00000000000000000000000040ae1e45fe5e1b3bf63c6a95c3380f46f4930a98",
        "nonce": "0x41",
        "chainId": "0x14a34"
      },
      "additionalContracts": [],
      "isFixedGasLimit": false
    },
    {
      "hash": "0xfaddf7e68ae0643a6248267e80cec75546b821ac21286a4c1dfd8ab163aed947",
      "transactionType": "CALL",
      "contractName": null,
      "contractAddress": "0x9c0187fcc2af0e918e3b6d6e31963e6aef10523f",
      "function": "grantRole(bytes32,address)",
      "arguments": [
        "0xede9dcdb0ce99dc7cec9c7be9246ad08b37853683ad91569c187b647ddf5e21c",
        "0x40aE1E45FE5E1b3bF63c6A95C3380f46F4930a98"
      ],
      "transaction": {
        "from": "0x0a1978f4cec6afa754b6fa11b7d141e529b22741",
        "to": "0x9c0187fcc2af0e918e3b6d6e31963e6aef10523f",
        "gas": "0x12996",
        "value": "0x0",
        "input": "0x2f2ff15dede9dcdb0ce99dc7cec9c7be9246ad08b37853683ad91569c187b647ddf5e21c00000000000000000000000040ae1e45fe5e1b3bf63c6a95c3380f46f4930a98",
        "nonce": "0x42",
        "chainId": "0x14a34"
      },
      "additionalContracts": [],
      "isFixedGasLimit": false
    }
  ],
  "receipts": [
    {
      "status": "0x1",
      "cumulativeGasUsed": "0x936d1",
      "logs": [
        {
          "address": "0x9c0187fcc2af0e918e3b6d6e31963e6aef10523f",
          "topics": [
            "0x2f8788117e7eff1d82e926ec794901d17c78024a50270940304540a733656f0d",
            "0x9f2df0fed2c77648de5860a4cc508cd0818c85b8b8a1ab4ceeef8d981c8956a6",
            "0x000000000000000000000000b0eea8ca6a5500167836253704b009dca2f88326",
            "0x0000000000000000000000000a1978f4cec6afa754b6fa11b7d141e529b22741"
          ],
          "data": "0x",
          "blockHash": "0xe889af95f2830cda0a3a2b157a603b3f643a37e85d9d0aab87a577b9a47d9e38",
          "blockNumber": "0x18440dd",
          "blockTimestamp": "0x681be09a",
          "transactionHash": "0x13ca7b86761b4704e89e4a6468f480e54a2a39939c81a7407d24a2a0327279cf",
          "transactionIndex": "0x2",
          "logIndex": "0xc",
          "removed": false
        }
      ],
      "logsBloom": "0x00000004000000000000000000000000000000000000000000000000000000000000000000000000000000000000004000000000000000000100000000000000000000000000000000000000000000000200000000000000000000000000000000000000000000000000000000000000000000000000000000000000001800000004000000000000000000000000000000000000000000000000000000000000000000000000000000000000000000000000000000000000001000000000000000000000000000000000000008000000001200000000000100000000000000000000000000000000200000010000000000000000000000000000000000000008",
      "type": "0x2",
      "transactionHash": "0x13ca7b86761b4704e89e4a6468f480e54a2a39939c81a7407d24a2a0327279cf",
      "transactionIndex": "0x2",
      "blockHash": "0xe889af95f2830cda0a3a2b157a603b3f643a37e85d9d0aab87a577b9a47d9e38",
      "blockNumber": "0x18440dd",
      "gasUsed": "0xcb6f",
      "effectiveGasPrice": "0xf4359",
      "from": "0x0a1978f4cec6afa754b6fa11b7d141e529b22741",
      "to": "0x9c0187fcc2af0e918e3b6d6e31963e6aef10523f",
      "contractAddress": null,
      "l1BaseFeeScalar": "0x44d",
      "l1BlobBaseFee": "0x1",
      "l1BlobBaseFeeScalar": "0xa118b",
      "l1Fee": "0x1401bd",
      "l1GasPrice": "0xaaeaf",
      "l1GasUsed": "0x6a4"
    },
    {
      "status": "0x1",
      "cumulativeGasUsed": "0xa0214",
      "logs": [
        {
          "address": "0x4db1987fcdf122679101dd8b46e3dcdf22414f49",
          "topics": [
            "0x2f8788117e7eff1d82e926ec794901d17c78024a50270940304540a733656f0d",
            "0x32e2871f61ddc79b070eebfaed80c8f55027023b24db38fa6a5c980e039ec398",
            "0x000000000000000000000000b0eea8ca6a5500167836253704b009dca2f88326",
            "0x0000000000000000000000000a1978f4cec6afa754b6fa11b7d141e529b22741"
          ],
          "data": "0x",
          "blockHash": "0xe889af95f2830cda0a3a2b157a603b3f643a37e85d9d0aab87a577b9a47d9e38",
          "blockNumber": "0x18440dd",
          "blockTimestamp": "0x681be09a",
          "transactionHash": "0x54777094bd12cf687ee8229cc3342de4d16821b4db2738b995ce181bb94c7378",
          "transactionIndex": "0x3",
          "logIndex": "0xd",
          "removed": false
        }
      ],
      "logsBloom": "0x00000004000000000000000000000000000000000000000000000000000000000000000000020000000000000000000080000000000000000000000000000000000000000000000000000000000000000200000000000000000000000000000000000000000000000000000000000000000000000000000000000000000800000004000000000000000000000000000000000000000040000000000000000000000000000000000000000000000000000000000000000040001000000000000000000000000000000000020000000000000000000000000100000000000000000000000000000000200000010000000000000200000000000000000000000008",
      "type": "0x2",
      "transactionHash": "0x54777094bd12cf687ee8229cc3342de4d16821b4db2738b995ce181bb94c7378",
      "transactionIndex": "0x3",
      "blockHash": "0xe889af95f2830cda0a3a2b157a603b3f643a37e85d9d0aab87a577b9a47d9e38",
      "blockNumber": "0x18440dd",
      "gasUsed": "0xcb43",
      "effectiveGasPrice": "0xf4359",
      "from": "0x0a1978f4cec6afa754b6fa11b7d141e529b22741",
      "to": "0x4db1987fcdf122679101dd8b46e3dcdf22414f49",
      "contractAddress": null,
      "l1BaseFeeScalar": "0x44d",
      "l1BlobBaseFee": "0x1",
      "l1BlobBaseFeeScalar": "0xa118b",
      "l1Fee": "0x1401bd",
      "l1GasPrice": "0xaaeaf",
      "l1GasUsed": "0x6a4"
    },
    {
      "status": "0x1",
      "cumulativeGasUsed": "0xacd63",
      "logs": [
        {
          "address": "0x4db1987fcdf122679101dd8b46e3dcdf22414f49",
          "topics": [
            "0x2f8788117e7eff1d82e926ec794901d17c78024a50270940304540a733656f0d",
            "0x2b3b34d8f2cbfb9866f3463c0bc43f6d821c949e95f5ca06701a7756b45ebc8e",
            "0x00000000000000000000000040ae1e45fe5e1b3bf63c6a95c3380f46f4930a98",
            "0x0000000000000000000000000a1978f4cec6afa754b6fa11b7d141e529b22741"
          ],
          "data": "0x",
          "blockHash": "0xe889af95f2830cda0a3a2b157a603b3f643a37e85d9d0aab87a577b9a47d9e38",
          "blockNumber": "0x18440dd",
          "blockTimestamp": "0x681be09a",
          "transactionHash": "0x31b7fc96def1065e712b757f026d35ce2e386ddfb52a3d06532fc25edf19627b",
          "transactionIndex": "0x4",
          "logIndex": "0xe",
          "removed": false
        }
      ],
      "logsBloom": "0x00000004000000000000000000000000000000000000000000000000000000000000000000000000000000000000000080000000000000000000000000000000000000000000000000000000000000000200000000000000000000000000000000000000000000040000000020000000000000000000000000000000000000000004000000000000000000000000000000000000000040000000000000000000000000000000040000000000000000000400000000000000001000000000000000000000000000000400000000000000000000000000000100000000000000000000000000000000200000000000000000000200000000000000000000004000",
      "type": "0x2",
      "transactionHash": "0x31b7fc96def1065e712b757f026d35ce2e386ddfb52a3d06532fc25edf19627b",
      "transactionIndex": "0x4",
      "blockHash": "0xe889af95f2830cda0a3a2b157a603b3f643a37e85d9d0aab87a577b9a47d9e38",
      "blockNumber": "0x18440dd",
      "gasUsed": "0xcb4f",
      "effectiveGasPrice": "0xf4359",
      "from": "0x0a1978f4cec6afa754b6fa11b7d141e529b22741",
      "to": "0x4db1987fcdf122679101dd8b46e3dcdf22414f49",
      "contractAddress": null,
      "l1BaseFeeScalar": "0x44d",
      "l1BlobBaseFee": "0x1",
      "l1BlobBaseFeeScalar": "0xa118b",
      "l1Fee": "0x1401bd",
      "l1GasPrice": "0xaaeaf",
      "l1GasUsed": "0x6a4"
    },
    {
      "status": "0x1",
      "cumulativeGasUsed": "0xb98de",
      "logs": [
        {
          "address": "0x9c0187fcc2af0e918e3b6d6e31963e6aef10523f",
          "topics": [
            "0x2f8788117e7eff1d82e926ec794901d17c78024a50270940304540a733656f0d",
            "0xede9dcdb0ce99dc7cec9c7be9246ad08b37853683ad91569c187b647ddf5e21c",
            "0x00000000000000000000000040ae1e45fe5e1b3bf63c6a95c3380f46f4930a98",
            "0x0000000000000000000000000a1978f4cec6afa754b6fa11b7d141e529b22741"
          ],
          "data": "0x",
          "blockHash": "0xe889af95f2830cda0a3a2b157a603b3f643a37e85d9d0aab87a577b9a47d9e38",
          "blockNumber": "0x18440dd",
          "blockTimestamp": "0x681be09a",
          "transactionHash": "0xfaddf7e68ae0643a6248267e80cec75546b821ac21286a4c1dfd8ab163aed947",
          "transactionIndex": "0x5",
          "logIndex": "0xf",
          "removed": false
        }
      ],
      "logsBloom": "0x00000004000000000000000000000000000000000000000000000000000000000000000000000000000000000000000000000000000000000100000000000002000000000000000000000000000000000200000000000000000000000000000000000200000000000000000820000000000000000000000000000000000000000004000000000000000000000000000000000000000000000000000000000000000000000000040000000000000000000400000000000000001000000000000000000000000000000000000008000000000200000000000100000000000000000000000000000000200000000000000000000000000000000000000000000000",
      "type": "0x2",
      "transactionHash": "0xfaddf7e68ae0643a6248267e80cec75546b821ac21286a4c1dfd8ab163aed947",
      "transactionIndex": "0x5",
      "blockHash": "0xe889af95f2830cda0a3a2b157a603b3f643a37e85d9d0aab87a577b9a47d9e38",
      "blockNumber": "0x18440dd",
      "gasUsed": "0xcb7b",
      "effectiveGasPrice": "0xf4359",
      "from": "0x0a1978f4cec6afa754b6fa11b7d141e529b22741",
      "to": "0x9c0187fcc2af0e918e3b6d6e31963e6aef10523f",
      "contractAddress": null,
      "l1BaseFeeScalar": "0x44d",
      "l1BlobBaseFee": "0x1",
      "l1BlobBaseFeeScalar": "0xa118b",
      "l1Fee": "0x1401bd",
      "l1GasPrice": "0xaaeaf",
      "l1GasUsed": "0x6a4"
    }
  ],
  "libraries": [],
  "pending": [],
  "returns": {},
  "timestamp": 1746657435,
  "chain": 84532,
  "commit": "0b10279"
}